:020000040800F2
:10000000381000205D050008E128000849050008B7
:1000100000000000000000000000000000000000E0
:100020000000000000000000000000009105000832
:10003000000000000000000009070008B1150008DA
:10004000A9070008A9070008A9070008A9070008D0
:10005000A9070008A9070008A9070008A9070008C0
:10006000A9070008A9070008A9070008A9070008B0
:10007000A9070008A9070008A9070008A9070008A0
:10008000A9070008A9070008A9070008A907000890
:10009000A9070008A9070008A9070008A907000880
:1000A000A9070008A9070008A9070008A907000870
:0400B000A907000894
:1000B40002B4714649084900095C49008E4402BCF7
:1000C4007047C046002934D00123002210B488426E
:1000D4002CD301242407A14204D2814202D2090173
:1000E4001B01F8E7E400A14204D2814202D2490094
:1000F4005B00F8E7884201D3401A1A434C08A04237
:1001040002D3001B5C0822438C08A04202D3001BCC
:100114009C082243CC08A04202D3001BDC082243E3
:10012400002803D01B0901D00909E3E7100010BC23
:10013400704701B5002000F00BF802BD0029F8D08B
:1001440003B5FFF7C1FF0EBC4243891A1847C046E6
:100154007047C0461C2101231B04984201D3000CA4
:1001640010391B0A984201D3000A08391B09984226
:1001740001D30009043902A2105C40187047C0463C
:10018400040302020101010100000000000000005C
:10019400F7B5040C0D0091B20F0061438C460600C4
:1001A400019383B2100C5F43444358433B0C6044B7
:1001B4001B18994202D980214902641801995543B8
:1001C4007143180C04191B04BFB24919D819091931
:1001D40003B0F0BD10B5024802F0F1FAFBE7C046E7
:1001E4005633000810B5024802F0E9FA002010BDA9
:1001F4006433000810B5024B1B68984710BDC04615
:1002040000000020014B18607047C0460000002029
:100214007FB505000E0010220021684602F09BFD08
:100224006C460223A370044B3200290068460193F4
:1002340002F014F87FBDC046F901000880210220B5
:100244000A4B0905DA6B82B00A43DA63DA6B0A40B7
:1002540007490192019A4A68824300204A60DA6B96
:1002640004490A40DA6302B07047C04600100240F5
:1002740000580140FFFFFFF710B5416807480C31F3
:1002840083681B68002B03D09847002803DC10BD4B
:1002940058204042FBE70020F9E7C046102F000831
:1002A40010B5052802D90024200010BD044B80009D
:1002B400C458200002F0C4FC0028F5D1F3E7C0467E
:1002C4001832000880220F4B9200196882B00A434A
:1002D4001A608022196852000A4301211A600A4BED
:1002E4000A4A1A600A4B1A6C0A431A641B6C094ABC
:1002F4000B400193019BC0231168DB000B43136087
:1003040002B07047002002403C0000200024F400AA
:100314000010024000000140014B036000207047C0
:1003240030320008F7B504000D001E00019201F000
:100334008FFD030000F046FA054F32003B5001994F
:100344002800A04700F03EFA385800F0BFF9C04634
:100354000800000010B5034A03480021121A02F0F5
:10036400AFFA10BD38030020780000200648074A81
:1003740010B5121A064902F0A7FA064A06480749B8
:10038400121A02F0A1FA10BD00000020740000202F
:10039400C03500080000002000000020C03500081F
:1003A40070B505000C1E13D08B684A680F480968A5
:1003B40002F005FA0E4863692269E16802F0FFF968
:1003C4000C48E16902F0FBF90B48A16902F0F7F966
:1003D400012D05D1EFF305810848103902F0EFF93A
:1003E4002800210001F026FA70BDC046E53300085C
:1003F40015340008453400085534000884340008D6
:1004040030BFFDE7F7B50A4B0A4D0600EF18CC1BC9
:100414002A0020000849019302F094FC601900218D
:10042400019A02F098FC3800083C34670830FEBD9D
:100434000400000000000000AC310008F0B5314BAE
:1004440004005F6889B0FD05ED0D62B6BFF36F8FE0
:10045400130EFF2B06D1F33B1340082B3BD12A4844
:1004640002F0ADF900263400032D3AD1274802F0FA
:10047400A6F9A369264A934202D3264A934205D396
:10048400254A934238D3254A934235D2023B1B88EE
:10049400FF221800DF219043090288422CD1134027
:1004A400022B29D11E48216802F089F927682022ED
:1004B4002100684602F046FC6D46079B002E1DD0C5
:1004C400DA0502D1174A1343EB6129003800FFF71C
:1004D40067FF09B0F0BD01261207C5D50C00002640
:1004E400C2E7F8235B0010491F4200D10F492A00DC
:1004F4000F48103A02F063F90027D8E75B0A5B0261
:10050400E2E7C04600ED00E0C6340008F23400081B
:10051400B4000008902E0008000000200000002015
:100524000A350008FF010000AD34000898340008C3
:10053400273500080821024A53698B4353617047E9
:1005440000ED00E0EFF30880EFF3098101B5724696
:10055400FFF774FF01BDC046094880F3088872B6EE
:1005640008480949401880F30988EFF314800221F0
:10057400084380F31488BFF36F8F02F0BBF90000C7
:1005840038100020380300200008000004207146C1
:10059400014202D0EFF3098001D1EFF308808169B1
:1005A400023909780229FFD001B5724602F090F9A8
:1005B40001BDC04643B2000605D41F221A400123E0
:1005C4009340014A1360704700E100E030B5FF2515
:1005D40003220B00290040B20240D20091409B014B
:1005E4002B40C943934000280ADBC0240A4A8008F0
:1005F40080008018A40002590A401343035130BDFF
:100604000F2210400838054A800880008018C2690B
:1006140011401943C161F2E700E100E000ED00E0A0
:10062400FF22044B9343044A9360BFF34F8FBFF3FD
:100634006F8F70470000000800ED00E010B5203A0D
:100644001360029B01245360039B06499360049B3F
:10065400A143D36080235B04D361002391610265CD
:10066400436710BD2903000870B50B4B1500986053
:10067400026F0A4B0E001A602C1C86F309880020B6
:10068400034B9847201C002100220023014C2047E3
:10069400152900082903000804030020640200202F
:1006A4001022014B1A61704700ED00E0054B5A69B6
:1006B4009B689A4205D08023034A5B0551680B432B
:1006C400536070470403002000ED00E010B50A4BAE
:1006D4009B6883420DD1EFF30583002B09D0802260
:1006E400064B520559680A435A605A6A04490A403B
:1006F4005A6202F0BFFA10BD0403002000ED00E0CE
:10070400FF7FFFFF15498A6815481044EFF3098CF1
:10071400F0C043464C4655465E466746F8C072B63E
:10072400104F114E4A698A603E60104C14192068BB
:100734000F4C2060506F00235367002800D162B62D
:10074400074C10191030F8C89846A146AA46B3467B
:10075400BC462438F0C88CF3098870470403002091
:100764003000000004ED00E000000008700000000C
:1007740064020020F0B5C02400220326FF25A40053
:1007840010002F003040C0008740054993089B00AB
:100794005B1819590132B94319511D2AF0D1F0BD22
:1007A40000E100E010B5EFF30583054A103BDB00E0
:1007B400D118496898588847FFF778FF10BDC0469C
:1007C40028300008014800687047000064020020D7
:1007D40010B50121024B034A034800F065F810BD2F
:1007E40000900020000000203032000810B5FF24E3
:1007F4000300064A90600868A0431843102303438B
:10080400D360012389680B43136110BD90ED00E0B0
:10081400F0B5140005000026FF2789B00291039368
:10082400029B9E4228DA6868002820D0039B002B94
:1008340007D0431E03421DD1FF281BD92A681A4240
:1008440018D12B683C400593AB68019302F06DF816
:10085400019B18430A4B07901B681B0A3B40013B52
:100864009C4207D8200005A9FFF7C0FF01340136D8
:100874000C35D5E716246442200009B0F0BDC0460B
:1008840090ED00E00522034B5A60BFF34F8FBFF396
:100894006F8F704790ED00E0BFF35F8F0022014B34
:1008A4005A60704790ED00E010B5034C01232278A4
:1008B400FFF7AEFF207010BD34030020F0B5534F96
:1008C400534E3B6835681B0ADBB287B09D4200D9A2
:1008D4009AE0FFF7E1FF0024A54219D14D4E02A88A
:1008E4003570FFF719FD002301900093009A019BD6
:1008F400934216D1FF21002032783B681B0A0B403B
:100904009A4200DA7CE0FFF7BDFF002007B0F0BD9B
:100914000C23634371682000C918FFF767FF013493
:10092400DAE78021009B09041A01029B9B18DA680C
:10093400120D12058A4246D00ED8802189038A42BC
:1009440033D08021C9038A4236D0802149038A42A8
:1009540015D0009B0133C8E7802189048A423AD02C
:10096400802149058A423ED0802149048A42F0D13F
:1009740098685D681C6801F0D8FF882329E09868AE
:100984005D681C6801F0D1FF234BFF2218430590DA
:10099400039504943B6830781B0A1340013B03A978
:1009A400984227D916204042B0E798685D681C68D1
:1009B40001F0BBFF194BE8E798685D681C6801F01B
:1009C400B4FF174BE1E798685D681C6801F0ADFF60
:1009D40082235B04D9E798685D681C6801F0A5FF71
:1009E4008023DB02D1E798685D681C6801F09DFFF5
:1009F4000C4BCAE7FFF7FAFE337801333370A8E7EC
:100A0400BA603861013278E70120CCE790ED00E06C
:100A14003C3200083403002000000B1100000811D0
:100A2400000002060000021110B5024B1B68984733
:100A3400002010BD68020020034B044A1860022302
:100A440091780B43937070476802002004000020E3
:100A5400072310B50449054A99430548521A01F081
:100A64006CFE002010BDC0463F1000200090002006
:100A74006C02002013B56A46064B694611CB11C2BD
:100A8400054883681B68002B01D0984716BD582081
:100A94004042FBE7AC310008102F0008030000209F
:100AA4001F2B0ED8013002009A4013000549CA6872
:100AB4001A40934205D008691840C01A434258416D
:100AC400C0B27047001802401F2201230240934025
:100AD4001F2804D80020034AD360136170471620EE
:100AE4004042FBE700180240F8B506000025012744
:100AF4007378AB4200D8F8BD347864192000FFF74E
:100B0400CDFF00280ED02000FFF7DEFF074AE100EA
:100B14008B58002B06D052181F2138000C40A040DF
:100B2400516898470135EDB2E2E7C04678020020EB
:100B34000022052010B50C4C110020706070FFF7E6
:100B440045FD002206201100A070E070FFF73EFD75
:100B54000C220721054802F0FEF8002207201100AC
:100B6400FFF734FD002010BD500000205400002089
:100B7400024B18684005C00F7047C0460010024081
:100B84000B8813B50C481B051A0D1B181B0D0C2BD9
:100B94000ED80A4C486813191A68024300201A60D8
:100BA4000B881B051B0D1B191B680193019B16BDAC
:100BB40086204042FBE7C0460000C0FC0010024013
:100BC4000B8809481B051A0D1B181B0D0C2B07D885
:100BD4000020064B4968D3181A688A431A60704784
:100BE40086204042FBE7C0460000C0FC00100240E3
:100BF40070B508880D0000051400000D0C2818D8E5
:100C0400002801D1863870BD01380B281BD8FFF7A6
:100C14004FFA242706221A272724241D1A1DFA20F6
:100C2400C0018023206029685B0199421AD2002008
:100C3400E9E70F4BC0180005000D0C2803D80D4B35
:100C4400C340DB0709D486204042DCE700F008F902
:100C5400C0004008E5E70848E3E7084B1868E0E708
:100C64000020DEE7090B0131FFF72CFA2060DEE7F4
:100C7400CC0F0000111100000024F4003C000020FF
:100C84000C2804D8034BC3400020DB0701D4862082
:100C9400404270471A17000070B508884C68000578
:100CA400E502000DA6B2ED0EFFF7EAFF002812D10F
:100CB400FF2C0FD0094BF21801236602B60F013640
:100CC400B340013BAB401168240E99430B00AC4088
:100CD4002343136070BD86204042FBE700100240AE
:100CE4000B880A4A1B05180D9B1810B51B0D0C2BFD
:100CF40008D8074BC01803684868984343425841D2
:100D0400013010BDFFF7BCFFF8E7C0460000C0FC8F
:100D140000100240F8B5484D00F0BAF8280001F080
:100D24001AFE00F019FD1F21444C454AA3682E0009
:100D34001B051B0F9B009B580B40D84013680700F2
:100D44000B401E41B04202D2300000F049FDFFF7D3
:100D54000FFF012808D0802322685B00134323601F
:100D6400FFF706FF0128FBD12368364A13402360AE
:100D74000123226E134323660223226E1A42FCD0FF
:100D84003822A3681340102B18D1FFF7F1FE012875
:100D940008D0802322685B0013432360FFF7E8FE3A
:100DA4000128FBD10722A3689343A3603823A268D8
:100DB4001A42FCD1A368244A1340A3602368234A3F
:100DC4001340236080239B0422681A42FCD1204BE9
:100DD400204A19681140802292020A431A60802234
:100DE400196852020A431A6000F03EF88023226810
:100DF4005B041343236080239B0422681A42FCD0C3
:100E0400A368114A1340A3600723A2689A43053BD1
:100E140013433822A360A3681340102BFBD1B742BD
:100E240002D3300000F0DCFC0B4B0C4A1D60A368BD
:100E340000201340A360F8BD0090D00300100240CE
:100E4400F8320008FFC7FFFFFFF0FFFFFFFFFFFEC0
:100E54000C100240FFFFC1FF3C000020FF8FFFFF8A
:100E6400004870470024F400064B074AD968114033
:100E7400064A0A43DA608022D96852050A43DA60D6
:100E84007047C046001002408C80FF1F02080020FB
:100E94008021064B4905DA6B82B00A43DA63DB6BC7
:100EA4000B400193019B02B07047C0460010024002
:100EB40010B5084801F0C4FE002808D0064C2000F4
:100EC400FFF7BAFD2000FFF79DF9002010BD1320A5
:100ED4004042FBE7F02F0008E10E000870B5040063
:100EE400074D0A2804D1AB680D2128005B68984798
:100EF400AB6828005B68E1B29847200070BDC0462B
:100F0400F02F000843681B68EFF31081012282F37D
:100F14001088986802439A6081F310880A4A9342C1
:100F240002D00A4A934203D1402259680A435A60C4
:100F3400EFF31081012282F310881868FF32024314
:100F44001A6081F310887047003801400044004063
:100F540043681B68EFF31080012181F310889A68BD
:100F64008A439A6080F310880A4A934202D00A4A5C
:100F7400934203D140215A688A435A60EFF31081A7
:100F8400012282F3108805481A6802401A6081F32E
:100F9400108870470038014000440040FFFEFFFF06
:100FA40037B503000D1E046802D11620404218E034
:100FB400406819698368DB68002B13D001AA98473D
:100FC40000280EDB2368084A680813402360019B4D
:100FD4002900C018FFF776F80F28E6D980B2E06040
:100FE40000203EBD5820E1E7FF7FFFFFF7B5020078
:100FF40013690C001D680B794068012B13D0991EEE
:101004004E427141890200916679022E0ED84A4FF0
:101014007600F75BA679022E0BD0042E2ED05E1E2E
:10102400B3411B0308E0C021C900ECE78027BF01DE
:10103400F0E75E4273411B07E6790196012E20D04A
:101044000026B4460068A5421ED104683B4E0099B0
:10105400344021430B430360436839490B403B430D
:1010640043605368374819688B68034060460343FC
:101074008B6029685068FFF793FFFEBD80235B01F6
:10108400DAE7C026B600DCE7C0210668C9000E40D6
:101094000099B14205D006682B490E4000990E43D1
:1010A4000660C0265168B6010868416831408F4225
:1010B40004D04168224E3140394341605168234E87
:1010C4000868016831408B4204D00168204E3140E9
:1010D4000B430360C0205368800019688B68034089
:1010E4009C4505D08B6817480340604603438B60DA
:1010F400019853680338464270411B689968490453
:10110400C90F884207D00199032911D18021986819
:10111400C9010143996021682B6800209942ACD031
:101124005068FFF73DFF0028A7D123682B60A4E790
:10113400996808480140EDE750330008FFE9FFEFE4
:10114400FFCFFFFFFFFCFFFFFFF9FFFF00100010C0
:10115400FFEFFFEFFFBFFFFFF0B5436807005868DC
:1011640085B01969019383681B68002B00D1A7E03F
:101174009847051E00DAA0E0019B0021586A03AAE3
:1011840001F0EAFB051E00DA97E0039B00221979BF
:10119400186801F0F4FB051E00DA8EE001227E6877
:1011A4003B6934681D68236893432360B06801F089
:1011B40047FD002800D185E0B068F1688368DB68EA
:1011C400002B00D09847EFF31082012383F310889B
:1011D40021680B330B43236082F310882900380005
:1011E400FFF704FF051E02D016256D4265E0337E2D
:1011F400002B03D00823A2681343A360737E002B43
:1012040004D0802362681B0213436360B37E002B07
:1012140004D0802362685B0213436360F37E002B77
:1012240004D0802362689B0213436360337F002BE6
:1012340028D0254B9C4208D0244B9C4205D0244BFB
:101244009C4202D0234B9C42CED17B681A688023F7
:101254009168DB010B4393602268737F1E495B0531
:101264000A40134323602268B37F1C491B040A40CD
:1012740013432360F37F002B04D08023A2681B0256
:101284001343A3600136F37F002B04D0802322682C
:101294009B051343236001232268134323608023A7
:1012A4009B03E2691A42FCD08023DB03E2691A4201
:1012B400FCD0019B38009B6A9847280005B0F0BD1C
:1012C400582592E7132590E7003801400044004078
:1012D40000480040004C0040FFFF1FFCFFFFE0FF00
:1012E400F0B5436885B01C68036906001B680D00EF
:1012F40003930B79012B1DD09A1E51424A4192024D
:1013040002926A790192022A17D80199304A480058
:10131400825AAF79022F13D0042F02D000208342C7
:1013240018D080204001D91E01290FD886204042C0
:1013340005B0F0BDC022D200E2E780229201E8E7C6
:101344000020002BEFD18020400503E0002B01D0CA
:10135400042FEBD080235B019C460023624509D017
:10136400C0239B019C460223624503D0013B002A13
:1013740000D00233019A9A42D8D1029901F058FB65
:101384008742D3D1EB79002B0DD0012B1CD1114B0B
:101394009C4208D0104B9C4205D0104B9C4202D07A
:1013A4000F4B9C42C2D1012723682900BB43300064
:1013B4002360FFF71BFE0028B8D123681F43039B5B
:1013C400276006CD06C3B3E7032BE0D0AEE7C046E3
:1013D40050330008003801400044004000480040F9
:1013E400004C004070B50369C0221B680C001B68E8
:1013F400D2000B608021436805001B68C9001B688C
:10140400134002228B4204D01C4A9B185A42534177
:10141400DAB2C021802022716B6889011B68002226
:101424005B6840010B40834206D002328B4203D0FA
:10143400013A002B00D0023262716B681B68186895
:101444001968C023DB0019400D4B184001F0F0FA75
:10145400C022A0716B6892001B689B681340094A04
:101464009B185A425341DBB2E3716A68126892686E
:10147400520400D503230020E37170BD00FAFFFF7E
:101484000010001000FDFFFF70B543680D001C68DC
:10149400C02320682168DB001940114B1600184056
:1014A40001F0C6FA042817D08023E26900201A420A
:1014B40011D0EFF3108272B6311A002906DDE1690A
:1014C400194203D0295C0130A162F5E7002A02D158
:1014D40062B6BFF36F8F70BD86204042FBE7C04603
:1014E4000010001070B543680D001C68C02320680C
:1014F4002168DB0019400D4B1600184001F098FAE2
:10150400042810D0002020220823311A00290CDDE1
:10151400E169114209D0616A2954E1690130194233
:10152400F3D02362F1E78620404270BD0010001022
:1015340030B50C490C4A8C6812680D688B68002C15
:1015440000D11400002B00D113000848ED0301D48E
:101554009C4203D20468A4180460096800688018D7
:10156400C01A30BD10E000E000030020F8020020A3
:10157400094A0020136A1B021B0A1362C822074B84
:1015840052011A60064B074A1860074B5A6007223B
:1015940098601A607047C04600ED00E00003002028
:1015A400F8020020FF18000010E000E0F7B5EFF3A8
:1015B4001083019372B60024FFF7BAFF124E230082
:1015C4003168124D0A0028686968801859412860FA
:1015D4006960C8210E4D346049012E686F68801B14
:1015E400FEF770FDC8214901414323000A00921906
:1015F4007B412A606B60074B01991C6000F0C4FDBD
:10160400FFF754F8F7BDC046F80200208000002020
:1016140078000020FC020020F0B505003B4C85B0AA
:1016240000290CD00300013309D10122236893431C
:10163400FF222360364B12061A6005B0F0BDFFF797
:1016440077FFA36806000193314B324902931B686C
:10165400039300231F009C460A684B68B6185F4139
:1016640063460E604F602C490B60691C24D02B49E3
:1016740008684968361A8F4167453BDB6346280092
:1016840027490A68E91780185941C82200235201E2
:10169400FEF77EFD801BB941002905DC8023DB00B9
:1016A400002927D1834225D20300002904DC04D178
:1016B40080225204904200D31A4B029A00261360EF
:1016C4008022013BA7686360174B9204A6605A60AE
:1016D400104B02931C685D68019BBB420DD2039AB8
:1016E400310094466344D81B00196941029B186079
:1016F4005960A2E78023DB00DFE733000199CA1BAE
:1017040012196B4102990A604B6096E710E000E001
:101714000003002080000020F80200207800002050
:10172400FC020020FFFFFF0000ED00E010B5074AB7
:10173400074B14681B68E41AFFF7FAFEC821001966
:101744004901FEF7BFFC034B186010BD8000002068
:1017540078000020FC020020382370B51D4CA268DC
:101764001A4205D123681C489B045B0FD84070BD06
:10177400A2681A40082A27D0A2681A40102A17D152
:10178400E368E168DB43E5684906490F6F322D0AD7
:10179400013115409B0709D11048FEF793FCE1681D
:1017A4006843490F0131FEF78DFCE0E70A48F4E78E
:1017B400A2681A40202A09D0A26800201340182BDE
:1017C400D5D1FA20C001D2E70448D0E78020000236
:1017D400CDE7C046001002400024F40000127A0055
:1017E400104B411E020010B50120994218D80E4931
:1017F40002238A4203D80D4B93429B415B42072448
:101804000B4900200A68A2431A430A600A6822406E
:10181400934205D008682040C01A431E9841C0B2C4
:1018240010BDC046FF8FD003006CDC0200366E0191
:101834000020024070B5EFF3108572B6064B9C6829
:1018440001F00EFA002D02D162B6BFF36F8F2000B3
:10185400FEF73CFF70BDC04604030020F8B5012725
:101864000A4E83009D59013084003359AB4200D89D
:10187400F8BD6868002806D0037E3B4201D101F020
:10188400C6F90835F1E72B689847FAE738330008BA
:10189400012270B5224B86B003201A70FFF7DEFFD9
:1018A4000420FFF7DBFF1F4C26001F4DAC420ED374
:1018B40000F0B0FAAE4220D300F0BCFAFEF78AFC86
:1018C40001211A4A93898B43938106B070BD636AE0
:1018D4000593236A0493E3690393A36902936369F9
:1018E400019323690093E368A2686168206800F0AB
:1018F400B1F823685C653034D7E7B26AF36A511CE7
:1019040001D1591C05D011003068194303D100F0EE
:10191400F1F83036CEE70649183000F04DFBF8E711
:1019240035030020103100081031000808010020A0
:10193400192D000870B501250400C60101021248E2
:1019440080220918002086B004950E3503950535CC
:1019540065430E4B0590029001900D48F6182D1822
:101964000C4B30000095520000F074F80422337CD4
:101974002C74934333740134074BE402E418EE608F
:101984006C6006B070BDC046380B00208800002093
:10199400040300206B2C000838030020F0B500205D
:1019A40087B0FFF75BFF224B83F308882149224B62
:1019B4000A6A00251A40C0231B0413430B62FEF776
:1019C400B9FDFEF76DFEFEF779FFFEF701FF1B4838
:1019D40000F084F8FEF776FC0120FFF73FFF0220B9
:1019E400FFF73CFF00F00CFA154C164B80225C61AB
:1019F400154B164E0593012315490493D200330069
:101A04002000039502950195009500F023F8042227
:101A14000700237C20009343237401F058F9280025
:101A2400FFF788FF320039002000FEF71DFEC04694
:101A3400380B002000ED00E0FFFF00FF88010020CC
:101A44000801002004030020A635000895180008AA
:101A5400380C0020F0B589B0079303005833836530
:101A6400C365129B00258381042307270374119BFC
:101A74000E00040083738560C5738561C561002110
:101A840000200732BA43D219BA43B318A062E16204
:101A94001900200005920693FEF7B4FC059BC019BB
:101AA4006366069BB8431F1A109BA06626660293C2
:101AB4000F9B3A0001930E9B310000932000079B7B
:101AC400FEF7BCFD044B65659B68AB4200D0DB6E42
:101AD4003800E36609B0F0BD040300200123037459
:101AE4008381002303664366C366014B9860704795
:101AF4000403002070B50400EFF3108572B60426C9
:101B0400037C33420DD0183000F0EAFA237C200025
:101B1400B343237401F0E7F82900054801F00DF9F7
:101B240070BD002DFCD162B6BFF36F8FF8E7C046DD
:101B3400360300200B21084A494293689967586785
:101B4400802306495B05486803434B6062B6BFF3D4
:101B54006F8F9368986F70470403002000ED00E0D6
:101B6400102370B5C356027C002B31DBD3062FD172
:101B740080235B4213431A4C0374A3691949E26935
:101B84008B4207D1016042601060E0610FE09A422D
:101B9400F8D01B68002BF5D00E260E259E5745570E
:101BA400AE42F4DD5A680360426010605860A56973
:101BB4008D4201D0002D00D1E568A3681A7CD206BD
:101BC40007D1DA897F2A04D9AA69002A01D163617D
:101BD40070BDAB4202D0280000F072F96561F7E7EE
:101BE400040300201C03002010B500280AD1EFF3E1
:101BF4000580002807D1064B5A699B689A4202D097
:101C0400FFF798FF10BD62B6BFF36F8FFAE7C046C7
:101C14000403002070B51A4CA168E3690A68CB1A62
:101C2400581E834149685B420A6051601340E16970
:101C3400A268002B05D1134B516013600A60E26166
:101C44000AE00E250E205D571056854213DD5968B3
:101C5400136051600A605A60A5690A4B9D4201D025
:101C6400002D00D1E568A3689D4202D0280000F051
:101C740027F9656170BD8B42DDD01B68D9E7C0468A
:101C8400040300201C0300201023F7B504000D00FA
:101C94000093002A01D0083B0093237C009A13424E
:101CA40043D113435AB2002A5CDB2374002301930B
:101CB400009B082B1ED1A368002B02D0200000F04B
:101CC400FBFF2000183000F00BFA0B3051D0270036
:101CD4005837A66DB74201D0002E53D10022334BA2
:101CE40001929B689C4205D1EFF305835A1E9341F0
:101CF400DBB201932D4F2E4BBE699E4201D0002EC4
:101D040000D1FE68BB68B34202D0300000F0D8F8BE
:101D1400009B7E61102B08D0200000F0F6FD019B93
:101D2400002B02D02348FFF7D9FE204B9B68A34227
:101D340035D1EFF30583002B31D1A389DB070DD512
:101D4400002D02D162B6BFF36F8F62B6BFF36F8FFF
:101D54000423181C02DFEFF3108572B62800FFF786
:101D6400E9FEF7BD7F2213402000237400F09CFF9E
:101D74009CE7002D02D162B6BFF36F8FEFF310859D
:101D840072B69EE7300000F097FF00233000B3677F
:101D9400183000F0A5F93000FFF7E2FE99E7002DB6
:101DA400DFD162B6BFF36F8FDBE7C04604030020C8
:101DB4001C0300208801002070B50F4D0F4BAC6947
:101DC40006009C4201D0002C00D1EC68AB681A7C60
:101DD400D20605D1DA897F2A02D9A269002A05D060
:101DE400A34202D0200000F06BF8230030006B61A6
:101DF400FFF7FAFE70BDC046040300201C03002058
:101E0400024B034A9A61DA617047C046040300201A
:101E14001C030020EFF3108172B6054B9A68D37B44
:101E2400013BD373002902D162B6BFF36F8F7047B1
:101E34000403002010B5EFF3108072B6034B9A68C8
:101E4400D37B0133D373FFF7B7FF10BD0403002026
:101E5400014B98687047C0460403002010B5047C09
:101E64001F21220003000A4000200C4211D109491D
:101E740010008B420DD008490868002809D0D98980
:101E84007F2905D80E215956044B1B68994200DA64
:101E9400100010BD8800002040000020280300200E
:101EA4000121044B044AC01A044BC0104343D154CB
:101EB4007047C0460802002036030020ABAAAAAA35
:101EC400F8B518250B4B1E7CFFF7C8FF75430A4B6A
:101ED4000400ED18280000F003F9084F002C06D088
:101EE400BA5D2800A21A0649D31700F065F800234A
:101EF400BB55F8BD0403002008020020360300206F
:101F0400A51E000870B5EFF3108672B6114D124B82
:101F1400AC681868A04202D1FFF7D2FF13E0002298
:101F24001A602A7C0D4B9B5C002B0CD02000FFF721
:101F340095FF002807D0237CDB0604D1FFF76AFE57
:101F44006869A042E8D0002E02D162B6BFF36F8F59
:101F540070BDC04604030020240300203603002083
:101F6400024B1868984200D10020704748000020B6
:101F740070B50600FFF7F4FF00280ED0026943692C
:101F84003400F517121BAB41002B06DC01D1002AEB
:101F940003DBD843C017104070BD0148FCE7C046BE
:101FA400FFFFFF7F10B5034B1868002801D0FFF72F
:101FB400BDFB10BD44000020F0B5040015001E0058
:101FC40085B0531C02D1731C00D180E0A160EFF3F3
:101FD4001083039372B6002E2ADBFFF7E3FF3D4B19
:101FE40000901B6800215A1E9341009A1800D317D1
:101FF4005219734112184B413749226163610868D1
:10200400496812184B411E00150001230293FFF783
:10201400A7FF0700314B9C465B680193002F1DD13D
:1020240063462360019B63601C6063465C6027E039
:10203400294B1868596802225242D317121A8B414D
:10204400521BB3411100002B04DC01D1002A01D141
:1020540001210023636121610023D7E7386979698D
:1020640022696369994202DC28D1904226D9801AF8
:1020740099417B6838617961636027601C607C608A
:10208400FFF76EFF84420FD1124B1B6801330BD153
:10209400029B002B02D1FFF785FF00900098FFF709
:1020A40067FF0021FFF7B8FA039B002B02D162B649
:1020B400BFF36F8F2800310005B0F0BD121A8B41B9
:1020C40022616361019B9F42AAD03F68A6E7002575
:1020D4000026EFE7440000202002002048000020F2
:1020E400F7B50400EFF31083019372B60568002D71
:1020F4002FD0FFF735FF184B5B689C4207D02A6945
:102104006B692669676992197B412A616B610025B5
:102114006268236813605A6025606560A04210D02D
:1021240000200E4A012311680D009D43AC4201D1E9
:102134000B431360019B002B02D162B6BFF36F8F78
:10214400FEBDFFF72FFFFFF713FF2900FFF764FA27
:10215400E6E716204042E4E7480000202C03002074
:10216400EFF3108272B60123064903430868C01ACC
:1021740043425841C0B2002A02D162B6BFF36F8F06
:102184007047C0462C0300200022F0B52F4B85B0C9
:1021940018602F4B02911A60FFF7E2FE2D4B9C460C
:1021A4001E685F68294B03931B6800280FD00469DD
:1021B4004569DA1700930192954202DC25D19C42CD
:1021C40023D90099019A641A954104614561180064
:1021D400D917801979416346002501221860596096
:1021E400039B52421D601A4B28001A60FFF7C0FE81
:1021F4002900FFF711FA029BAB4202D162B6BFF38A
:102204006F8FFFF77FFE05B0F0BD36196F4111499E
:102214001B1B0E604F600D4982680B6003684168A8
:102224000D4D0B605960002303604360029B2860DE
:10223400002B02D162B6BFF36F8F9047EFF3108487
:1022440072B6002302942B60A6E7C0463003002038
:1022540044000020200200202C030020F0B5436835
:1022640091B0019006938378170000269B0700D550
:1022740024E20126764257E04D788B1C0993252DE4
:1022840000D124E200220421099B1400009205924B
:102294000A3209931F2C1FD82800203810281DD873
:1022A400FDF706FF0E1C1C181C1C1C0F1C1C1C0C10
:1022B4001C161C1C09000120044302E002200443F4
:1022C4000C43099801330578002DE2D1099337E0D6
:1022D4000820F1E71020EFE77F2C28D828003038B9
:1022E40009280DD840252C4204D0009D55432818B8
:1022F4000090E6E7059D5543281805902020DBE76C
:102304002A2D0CD101CF6506F2D4002803DB202549
:1023140005902C43D5E7404205902820CCE72E2D8C
:1023240005D140200442C7D0300011B0F0BD6C2D5F
:102334002CD026D8682D31D06A2D32D04C2D30D0F7
:10234400009B002B03DA40239C43002300932023AB
:102354002B431A00653A022A01D9612B24D10722A2
:10236400FB1D934308331F00B84B009204932407CA
:1023740052D53400009B9D19AC424FD1059B009A65
:1023840061E1742D9DD07A2D9BD0D9E78020044241
:1023940000D191E78025AD002C438DE780204000DB
:1023A400F5E7A020800087E728006338122800D9C9
:1023B400E2E0FDF77DFE0A43E1E1E1E143E1E1E131
:1023C400E1E1F2DCE1E111E1A300012302CF0AAA79
:1023D400117000930492CAE708CF0493002B01D133
:1023E4009B4B0493630602D401235B420093009940
:1023F400049800F0B8FC0090B9E720200199069BEE
:102404009847002813DB013C009BA342F5D3059BAE
:1024140005949E19361BACE7059CF5E7049B0199CE
:102424009B1B185D069B984701340028A4DA019B86
:102434009A7804231343019A93701AE723063FD52D
:10244400A30538D50722073797430CCF029203938D
:10245400102322009A43039B0892002B39DA029935
:10246400039A00244B429441029303948023089AD4
:10247400DB0013439BB208930AAC0A230298039926
:10248400220000F07BFC031B0793079B089C04932A
:1024940023005B0600D4A1E00123079A9C43009B20
:1024A400934200DC9AE0002D00D095E01123089CB3
:1024B4009C43009B1AE008CF0293DB170393C7E702
:1024C40008CFE205F8D5A20501D55BB2F4E71BB24B
:1024D400F2E7029B039A1343CED16306CCD5009B4B
:1024E400002BC9D111339C43009B07930493594B90
:1024F40023405A1E9341049AD31825E010239C4389
:10250400063B9C46802322001A4004921C424AD077
:1025140021008133FF3319401C4242D00722FB1DA6
:1025240093431F0003CB083703000B434DD1220014
:1025340016339A43089263064AD5009B002B47D171
:1025440017339C43009B07930493230761D4E30749
:102554000BD5079B049A0093059B934205DD9B1AB8
:10256400079A9B180093059B0493049B48E010234F
:1025740078259C461C43C5E7782B04D110225B1BAD
:102584001A439446BEE725200199069B98470028E4
:1025940000DA4CE70236E8B29AE0082300259C46AC
:1025A400B0E701CFC0E78022210008CF5200180015
:1025B40011401442B8D0802221009200114098B2F8
:1025C4001442B1D00499D8B2AEE706239C430894D0
:1025D4000AAC6346220054E7009B0493E30686D5C5
:1025E4002B005A1E9341049A9B180133ACE7202018
:1025F4000199069B9847002800DA18E7089B0133E5
:102604000893089A059B9342F1DC049B0492F61A02
:10261400B618E30628D530200199069B9847002870
:1026240000DA04E7002D17D101363400009B079A25
:10263400F3181B1B9A4223DB1500002D28D1079B9E
:10264400049A1C19059B26009D1A32E0B235000835
:10265400AB350008060400000236E8B20199069B77
:1026640098470028E1DAE2E61C4B1C42DDD02B201F
:10267400A30700D40B38640500D52D200136EDE7FF
:1026840030200199069B013498470028CEDACEE623
:102694000AAB013DE85C0199069B98470028CCDA17
:1026A400C5E620200199069B01369847002800DAE8
:1026B400BDE663199B1B002BF3DC099908780028FD
:1026C40000D131E6252800D1D6E54B1C099301360B
:1026D4000199069B98470028EFDAA8E60604000053
:1026E4007047C9004018408840087047F8B50D008D
:1026F4000400FFF7F6FFFDF72DFD1F21091A8A00DC
:10270400A218EB0010691F1D0633E719E318AEB2D7
:10271400002808D101308840E1680143E160156177
:102724003E801E80F8BDC1000431625A3A80D20056
:10273400A2181880D6806652F4E70723F7B500275D
:10274400043ACC1D89189C4399430E1BF608046077
:10275400A660E760300000912425FDF7FBFC2022F1
:102764002D1A121A200039009200103000F0F3FAEA
:102774000122AD000735ED08A9B24B001343638075
:10278400731BEA009BB20193A018030001982780F1
:1027940040008446180063464380A1520122009BF6
:1027A4000199F6005F801980A619738829001343E4
:1027B40073802000FFF79AFFF7BD002070470FB425
:1027C40007B504A901C90191FDF722FD03B008BCB6
:1027D40004B0184770475820404270475820404280
:1027E4007047582040427047582040427047582054
:1027F40040427047582040427047F7B501242600F4
:102804008E40C025A446802734004068ED018C40EA
:10281400406801931540FF01BD423BD10F25530A87
:102824002B409C4607292AD827008F408F407D43A0
:10283400036AAB4365466F431F4307621304DB0F10
:102844008B404568B5432B43436003252900130C93
:1028540061432B40634386688E4333438360930C08
:102864002B406343C668520B8E4333432A40C360F4
:10287400544303688B431C4304600020FEBD330AA9
:102884005B435B435D43476AAF4365466B433B43EE
:102894004362D3E78027BF01BD42D6D16346D50B3F
:1028A4001D408D4029004768019BB743394341606F
:1028B400002BCAD0D30201D58661C6E78662C4E77D
:1028C40010B500F048FA10BD10B500F03BFA10BD89
:1028D40010B501000068FDF763FD10BD10B5FDF7EC
:1028E4008FFDFDF7E3FE10BD10B500210120FDF7BB
:1028F40057FD10BD10B5FDF793FEFDF72BFDFDF759
:1029040035FDFDF737FFFFF749F886204042704751
:10291400002802D162B6BFF36F8F7047BFF34F8FA9
:1029240030BF62B6BFF36F8F7047030010B5082045
:10293400202B0AD9802236301206934205D8581E1D
:10294400FDF708FC1F23181A400010BD10B5FEF750
:102954006BF8002010BD704730B50368136005792B
:102964000468ED006419A34202D30220404230BD42
:102974000833DC1E24788C42F0D10020F7E7F7B549
:1029840004000F261F27890043180193019B9C42D2
:1029940001D1002011E0256828006B09334038403C
:1029A4000093FDF77DFC002808D001232A0000993C
:1029B400FFF723FF04340028E8DAFEBD1320404269
:1029C400FBE74068CB0300681B0D1B181F20014068
:1029D4001E3888401B680340591E8B410020137029
:1029E40070474268CB0312681B0D9B181F221140CD
:1029F4001E3A8A40186802431A60002070474268F1
:102A04001F20CB0301401E38884012681B0D9B1801
:102A14001A6882431A600020704770B50D000400E4
:102A2400FFF7DFFF29002000FFF7E9FF002070BD5A
:102A34008022030052010800934207D080225205ED
:102A4400934207D1434258410130704743425841B1
:102A54000330FAE7434258410230F6E70121436864
:102A64001A68D069D36900070B408B40D169C00F45
:102A740018430423890700D51843D169194201D0AA
:102A8400202318438023D1695B00194202D0082116
:102A940013620843C30701D508231362830701D5D2
:102AA40001231362430701D502231362830601D570
:102AB40004231362704743681A68EFF310810123FB
:102AC40083F3108810683F330343136081F3108845
:102AD400704743681A68EFF31081012383F3108869
:102AE400402013688343136081F310887047436860
:102AF4001A68EFF31081012383F3108810681F33E1
:102B04000343136081F31088704743681A68EFF336
:102B14001081012383F310882020136883431360FA
:102B240081F31088704743681B68D8698006C00F1A
:102B34007047036959609A60704710B50269536819
:102B4400002B01D09168984710BD002210B51100E8
:102B54001B20FDF73BFD1B20FDF72CFD10BD0022C3
:102B640010B511001C20FDF731FD1C20FDF722FDDE
:102B740010BD43681B68D8694006C00F704743689E
:102B840000201B68DA69120602D518684006C00FD7
:102B94007047802210B543681B68D8691042FCD086
:102BA400EFF3108072B6DC69144205D10028F4D129
:102BB40062B6BFF36F8FF0E79962002800D010BDB2
:102BC40062B6BFF36F8FFAE7202243681B68D969A6
:102BD400114203D019680120114206D1DA6900209C
:102BE400520602D518684006C00F70470822436891
:102BF4001B68D869104200D01A62DA69920603D5BC
:102C040000205B6A0B70704701204042FBE710B55F
:102C140043690400002B07D100230122E1684878AE
:102C240002434A70584210BD98470028F4D0C11797
:102C34004318E2684B40FF2B00DDFF231370ECE7E1
:102C4400002808D0C36800205A78D20703D5187822
:102C540043425841C0B27047EFF3108372B6FEE7A7
:102C640010B5FFF7F9FF10B5EFF3108372B6FFF755
:102C740055FEF9E710B58489EFF3108172B6037C31
:102C84001B0705D5002902D162B6BFF36F8F10BDB3
:102C94000122FEF7F9FFE407F9D562B6BFF36F8F9F
:102CA4000423181C02DFF2E70368426813605A60C9
:102CB400002303604360704710B50400FFF7F4FF7E
:102CC4000222237C934323740023A36010BD10B518
:102CD400EFF3108472B6FEF743FF002C02D162B604
:102CE400BFF36F8F10BD10B5FEF73AFF10BD282358
:102CF40010B5027C04001A420BD18368002B01D06A
:102D0400FFF7DAFF0422237C200093432374FEF7A9
:102D140027FF10BD70B50500183DEFF3108472B69F
:102D2400FFF71EFA002802D12800FFF7E0FF002C6D
:102D340002D162B6BFF36F8F70BD10B50800FEF705
:102D440053FF10BD002310B59A4200D110BDCC5CD6
:102D5400C4540133F8E703008218934200D170474A
:102D640019700133F9E7030041188B4202D01A7835
:102D7400002A01D1181A70470133F6E7F0B50D00A7
:102D84003721C91A8FB0C9B20D911F2104000B401D
:102D94000C930C99E3B2082955D0102900D164E0B2
:102DA400E90760080843690806900791A008A90785
:102DB4000843A90808900991089E099F0698079955
:102DC400801979410E07B446060900966646009FAD
:102DD40037430E0900970196009E019F801979419F
:102DE4000E06B4466746060A3E4302960E0A03964A
:102DF400029E039F801979410E04B4466746060C6F
:102E04003E4304960E0C0596049E059F8019794155
:102E140000260A910B960A9E0B9F801979414E0752
:102E2400CD080521C4083443614349005B1ADBB271
:102E3400092B12D9012000210A3B24184D41DBB291
:102E44001DE00200A5E707210B4069078C46664692
:102E5400E008E908064334000D0030331370230002
:102E6400501C2B43EDD10FB0F0BD0F210B402907AF
:102E74008C46664620092909064334000D00092BB7
:0C2E8400EBD90D99CB18DBB2E7E700009A
:102E900000000000102F00084102000800000000A0
:102EA000000000002C2F0008000000009C2F0008EC
:102EB00000000000B82F000800000000802F00086C
:102EC00000000000D42F000800000000642F00085C
:102ED00000000000482F0008350B0008000000002B
:102EE00000000000F02F0008000000000C30000877
:102EF000B50E000800000000751500080000000075
:102F0000550A000800000000E90100080000000068
:102F10006835000800000000203100086C00002027
:102F200000000000190D00080000000075350008C1
:102F30005C320008103100086E0000200000000024
:102F400000000000000000009F330008B4310008BA
:102F50003C31000860000020280200207D020008AB
:102F600000000000AD330008C83100083C31000803
:102F700062000020340200207D02000800000000F2
:102F8000BB330008DC3100083C310008640000203D
:102F9000400200207D02000800000000C933000844
:102FA000F03100083C310008660000204C0200208F
:102FB0007D02000800000000D7330008043200083A
:102FC0003C31000868000020580200207D02000803
:102FD000000000004A35000800000000000000006A
:102FE0006A00002000000000790A000800000000CC
:102FF000863500086032000860310008700000204B
:10300000140000205D110008000000009635000843
:10301000AC32000860310008720000202800002057
:083020005D1100080000000032
:1030280000000000ED28000800000000ED2800085E
:1030380000000000ED28000800000000ED2800084E
:1030480000000000ED280008BE350008ED0A000861
:10305800BC350008ED0A0008BA350008ED0A00087A
:1030680000000000ED28000800000000ED2800081E
:1030780000000000ED28000800000000ED2800080E
:1030880000000000ED28000800000000ED280008FE
:1030980000000000ED28000800000000ED280008EE
:1030A80000000000ED28000800000000ED280008DE
:1030B80000000000ED28000800000000ED280008CE
:1030C80000000000ED28000800000000ED280008BE
:1030D80000000000ED28000800000000ED280008AE
:1030E80000000000ED28000800000000ED2800089E
:1030F80000000000ED2800080C3000083F2B0008F5
:08310800F02F00083F2B000826
:10311000C7290008E7290008032A00081F2A000819
:10312000850B0008C50B000800000000F50B000827
:10313000E50C0008000000009D0C0008DB270008DB
:10314000E1270008E7270008ED270008F927000815
:10315000F32700080000000000000000000000004D
:10316000F12B0008972B0008612A0008E5120008DF
:10317000E91300088D140008E9140008BB2A0008B0
:10318000D72A0008832B0008F32A00080F2B000819
:10319000772B00082B2B0008090F0008550F00089B
:0C31A000CD2B000800000000372B0008B9
:1031AC004000000001000000FFFF00000014005070
:1031BC00050000003400000020000000FFFF0000AC
:1031CC00000C005003000000340000000800000058
:1031DC00FFFF000000080050020000003400000057
:1031EC0004000000FFFF000000040050010000007C
:1031FC003400000002000000FFFF0000000000503F
:10320C00000000003400000001000000B82F00088E
:10321C009C2F0008802F0008642F0008000000007D
:10322C00482F0008000000200000000000000B06E2
:10323C000200000044320008000000083B35000882
:10324C002000020600000020433500081E000B1170
:10325C000010024000440040102F00082C2F0008E2
:10326C00910500008C3200080100000000000000F5
:10327C00000000000000000094320008632B0008DE
:10328C003C000000000002009C320008010000001D
:10329C00A43200080200000040420400604200001A
:1032AC0000380140102F00082C2F00080E060000DB
:1032BC00D8320008010000000000000000000000EF
:1032CC0000000000E03200084F2B00084000000016
:1032DC0000400000E832000801000000F032000855
:1032EC000200000082420400A24200000000000024
:1032FC0000000000000000000000000000000000C2
:10330C0000000000000000000000000001000000B0
:10331C000200000003000000040000000600000092
:10332C00070000000800000009000000902E0008B3
:10333C00902E0008F82E0008002F0008082F000817
:10334C00102F000800100000003048656C6C6F20D6
:10335C00576F726C642121002A2A2A20426F6F74E5
:10336C00696E67205A6570687972204F53206275B8
:10337C00696C642076342E342E302D363630352D53
:10338C0067376539643365333437366564202A2AE8
:10339C002A0A006770696F40353030303134303074
:1033AC00006770696F403530303030633030006703
:1033BC0070696F40353030303038303000677069AC
:1033CC006F403530303030343030006770696F40CA
:1033DC0035303030303030300072302F61313A209F
:1033EC0020307825303878202072312F61323A2005
:1033FC0020307825303878202072322F61333A20F3
:10340C00203078253038780A0072332F61343A2016
:10341C0020307825303878207231322F69703A207C
:10342C0020307825303878207231342F6C723A2065
:10343C00203078253038780A0020787073723A2062
:10344C00203078253038780A004661756C74696EC6
:10345C006720696E737472756374696F6E20616432
:10346C00647265737320287231352F7063293A208A
:10347C003078253038780A00556E68616E646C655A
:10348C0064204952516E3A2025640A0052657365D6
:10349C007276656420457863657074696F6E202858
:1034AC000053707572696F757320696E74657272F2
:1034BC0075707420284952512000535053454C20AC
:1034CC00696E20746872656164206D6F6465206438
:1034DC006F6573206E6F7420696E646963617465C7
:1034EC00205053500A002A2A2A2A2A2048415244A2
:1034FC00204641554C54202A2A2A2A2A0A00415295
:10350C0043485F455843455054207769746820728E
:10351C006561736F6E2025780A0A002A2A2A2A2AE6
:10352C0020257320256429202A2A2A2A2A0A0046C3
:10353C004C4153485F30005352414D5F3000696E2F
:10354C00746572727570742D636F6E74726F6C6CBF
:10355C006572403430303231383030007263634041
:10356C0034303032313030300072657365742D6315
:10357C006F6E74726F6C6C65720073657269616CDE
:10358C004034303030343430300073657269616CE3
:10359C00403430303133383030006D61696E002882
:1035AC006E756C6C29002A666C6F61742A00040CB1
:0435BC000202000205
:1035C000BF2700080000000051290008000000008B
:1035D00000000000200000200000000000000000AB
:1035E00000C20100000103003400002000000000C0
:1035F0000000000000C20100000103000024F400EC
:10360000C8000000FFFFFFFF480000204800002026
:10361000FFFFFFFFFFFFFFFFFFFFFFFFFFFFFFFFBA
:10362000000000000000000000000000000000009A
:043630000000000096
:0436340015E015E0A8
:040000050800055D8D
:00000001FF
